{
  "transactions": [
    {
      "hash": "0x7bf6a750e16935e157ca8c63c39173fdccd4c5951c62eecfd4fe30a8a0a759e2",
      "transactionType": "CALL",
      "contractName": null,
      "contractAddress": "0x553c346d69052e97255ee77f1ae96d857fb42db9",
      "function": "createMarket(string,string,string,uint256)",
      "arguments": [
        "Will ETH price be above $2,500 in 5 minutes?",
        "Above $2,500",
        "Below $2,500",
        "300"
      ],
      "transaction": {
        "from": "0x683c2b9fbaedc26522f446e42bec896666390ec4",
        "to": "0x553c346d69052e97255ee77f1ae96d857fb42db9",
        "gas": "0x405a7",
        "value": "0x0",
        "input": "0x76e00406000000000000000000000000000000000000000000000000000000000000008000000000000000000000000000000000000000000000000000000000000000e00000000000000000000000000000000000000000000000000000000000000120000000000000000000000000000000000000000000000000000000000000012c000000000000000000000000000000000000000000000000000000000000002c57696c6c204554482070726963652062652061626f76652024322c35303020696e2035206d696e757465733f0000000000000000000000000000000000000000000000000000000000000000000000000000000000000000000000000000000c41626f76652024322c3530300000000000000000000000000000000000000000000000000000000000000000000000000000000000000000000000000000000c42656c6f772024322c3530300000000000000000000000000000000000000000",
        "nonce": "0x1f",
        "chainId": "0x14a34"
      },
      "additionalContracts": [],
      "isFixedGasLimit": false
    },
    {
      "hash": "0xdb931549bdede4459af07dce1364f0e6ddba9de1530c2ba95a1559e2b13abf1b",
      "transactionType": "CALL",
      "contractName": null,
      "contractAddress": "0x553c346d69052e97255ee77f1ae96d857fb42db9",
      "function": "createMarket(string,string,string,uint256)",
      "arguments": [
        "Will BTC/USD be green in the next 10 minutes?",
        "Green (Up)",
        "Red (Down)",
        "600"
      ],
      "transaction": {
        "from": "0x683c2b9fbaedc26522f446e42bec896666390ec4",
        "to": "0x553c346d69052e97255ee77f1ae96d857fb42db9",
        "gas": "0x3cc42",
        "value": "0x0",
        "input": "0x76e00406000000000000000000000000000000000000000000000000000000000000008000000000000000000000000000000000000000000000000000000000000000e000000000000000000000000000000000000000000000000000000000000001200000000000000000000000000000000000000000000000000000000000000258000000000000000000000000000000000000000000000000000000000000002d57696c6c204254432f55534420626520677265656e20696e20746865206e657874203130206d696e757465733f00000000000000000000000000000000000000000000000000000000000000000000000000000000000000000000000000000a477265656e202855702900000000000000000000000000000000000000000000000000000000000000000000000000000000000000000000000000000000000a5265642028446f776e2900000000000000000000000000000000000000000000",
        "nonce": "0x20",
        "chainId": "0x14a34"
      },
      "additionalContracts": [],
      "isFixedGasLimit": false
    },
    {
      "hash": "0xfb45206f4821ba593db1310601126b3ef342121df2a9e239ded1eb77415a80a7",
      "transactionType": "CALL",
      "contractName": null,
      "contractAddress": "0x553c346d69052e97255ee77f1ae96d857fb42db9",
      "function": "createMarket(string,string,string,uint256)",
      "arguments": [
        "Will the next NBA game have over 220 total points?",
        "Over 220",
        "Under 220",
        "1800"
      ],
      "transaction": {
        "from": "0x683c2b9fbaedc26522f446e42bec896666390ec4",
        "to": "0x553c346d69052e97255ee77f1ae96d857fb42db9",
        "gas": "0x3cc62",
        "value": "0x0",
        "input": "0x76e00406000000000000000000000000000000000000000000000000000000000000008000000000000000000000000000000000000000000000000000000000000000e000000000000000000000000000000000000000000000000000000000000001200000000000000000000000000000000000000000000000000000000000000708000000000000000000000000000000000000000000000000000000000000003257696c6c20746865206e657874204e42412067616d652068617665206f7665722032323020746f74616c20706f696e74733f000000000000000000000000000000000000000000000000000000000000000000000000000000000000000000084f766572203232300000000000000000000000000000000000000000000000000000000000000000000000000000000000000000000000000000000000000009556e646572203232300000000000000000000000000000000000000000000000",
        "nonce": "0x21",
        "chainId": "0x14a34"
      },
      "additionalContracts": [],
      "isFixedGasLimit": false
    },
    {
      "hash": "0xc84858aa982e71c57375243f09d04be6546392ec8ef730c1a915c9e92ca7b8f8",
      "transactionType": "CALL",
      "contractName": null,
      "contractAddress": "0x553c346d69052e97255ee77f1ae96d857fb42db9",
      "function": "createMarket(string,string,string,uint256)",
      "arguments": [
        "Will Apple stock close higher today?",
        "Higher Close",
        "Lower Close",
        "3600"
      ],
      "transaction": {
        "from": "0x683c2b9fbaedc26522f446e42bec896666390ec4",
        "to": "0x553c346d69052e97255ee77f1ae96d857fb42db9",
        "gas": "0x3cbdd",
        "value": "0x0",
        "input": "0x76e00406000000000000000000000000000000000000000000000000000000000000008000000000000000000000000000000000000000000000000000000000000000e000000000000000000000000000000000000000000000000000000000000001200000000000000000000000000000000000000000000000000000000000000e10000000000000000000000000000000000000000000000000000000000000002457696c6c204170706c652073746f636b20636c6f73652068696768657220746f6461793f00000000000000000000000000000000000000000000000000000000000000000000000000000000000000000000000000000000000000000000000c48696768657220436c6f73650000000000000000000000000000000000000000000000000000000000000000000000000000000000000000000000000000000b4c6f77657220436c6f7365000000000000000000000000000000000000000000",
        "nonce": "0x22",
        "chainId": "0x14a34"
      },
      "additionalContracts": [],
      "isFixedGasLimit": false
    },
    {
      "hash": "0x803955b35ececeb1da0e6055126db0e18143f5f8351a16f2e378315bc9fcbfd1",
      "transactionType": "CALL",
      "contractName": null,
      "contractAddress": "0x553c346d69052e97255ee77f1ae96d857fb42db9",
      "function": "createMarket(string,string,string,uint256)",
      "arguments": [
        "Will it rain in New York in the next 2 hours?",
        "Will Rain",
        "No Rain",
        "7200"
      ],
      "transaction": {
        "from": "0x683c2b9fbaedc26522f446e42bec896666390ec4",
        "to": "0x553c346d69052e97255ee77f1ae96d857fb42db9",
        "gas": "0x3cbff",
        "value": "0x0",
        "input": "0x76e00406000000000000000000000000000000000000000000000000000000000000008000000000000000000000000000000000000000000000000000000000000000e000000000000000000000000000000000000000000000000000000000000001200000000000000000000000000000000000000000000000000000000000001c20000000000000000000000000000000000000000000000000000000000000002d57696c6c206974207261696e20696e204e657720596f726b20696e20746865206e657874203220686f7572733f00000000000000000000000000000000000000000000000000000000000000000000000000000000000000000000000000000957696c6c205261696e000000000000000000000000000000000000000000000000000000000000000000000000000000000000000000000000000000000000074e6f205261696e00000000000000000000000000000000000000000000000000",
        "nonce": "0x23",
        "chainId": "0x14a34"
      },
      "additionalContracts": [],
      "isFixedGasLimit": false
    },
    {
      "hash": "0x6090a319687408eac70b77ba48710a1683d9a32d8a19ea7def378b1f91d2add4",
      "transactionType": "CALL",
      "contractName": null,
      "contractAddress": "0x553c346d69052e97255ee77f1ae96d857fb42db9",
      "function": "createMarket(string,string,string,uint256)",
      "arguments": [
        "Will Solana (SOL) outperform Ethereum today?",
        "SOL Wins",
        "ETH Wins",
        "21600"
      ],
      "transaction": {
        "from": "0x683c2b9fbaedc26522f446e42bec896666390ec4",
        "to": "0x553c346d69052e97255ee77f1ae96d857fb42db9",
        "gas": "0x4051b",
        "value": "0x0",
        "input": "0x76e00406000000000000000000000000000000000000000000000000000000000000008000000000000000000000000000000000000000000000000000000000000000e000000000000000000000000000000000000000000000000000000000000001200000000000000000000000000000000000000000000000000000000000005460000000000000000000000000000000000000000000000000000000000000002c57696c6c20536f6c616e612028534f4c29206f7574706572666f726d20457468657265756d20746f6461793f00000000000000000000000000000000000000000000000000000000000000000000000000000000000000000000000000000008534f4c2057696e7300000000000000000000000000000000000000000000000000000000000000000000000000000000000000000000000000000000000000084554482057696e73000000000000000000000000000000000000000000000000",
        "nonce": "0x24",
        "chainId": "0x14a34"
      },
      "additionalContracts": [],
      "isFixedGasLimit": false
    },
    {
      "hash": "0x533ca84b786c994d09cb60f33f864d97ed43e1dd32c9f33e8b94b3c43183cba3",
      "transactionType": "CALL",
      "contractName": null,
      "contractAddress": "0x553c346d69052e97255ee77f1ae96d857fb42db9",
      "function": "createMarket(string,string,string,uint256)",
      "arguments": [
        "Will there be a major political announcement today?",
        "Yes, Major News",
        "No Major News",
        "86400"
      ],
      "transaction": {
        "from": "0x683c2b9fbaedc26522f446e42bec896666390ec4",
        "to": "0x553c346d69052e97255ee77f1ae96d857fb42db9",
        "gas": "0x4067a",
        "value": "0x0",
        "input": "0x76e00406000000000000000000000000000000000000000000000000000000000000008000000000000000000000000000000000000000000000000000000000000000e000000000000000000000000000000000000000000000000000000000000001200000000000000000000000000000000000000000000000000000000000015180000000000000000000000000000000000000000000000000000000000000003357696c6c2074686572652062652061206d616a6f7220706f6c69746963616c20616e6e6f756e63656d656e7420746f6461793f00000000000000000000000000000000000000000000000000000000000000000000000000000000000000000f5965732c204d616a6f72204e6577730000000000000000000000000000000000000000000000000000000000000000000000000000000000000000000000000d4e6f204d616a6f72204e65777300000000000000000000000000000000000000",
        "nonce": "0x25",
        "chainId": "0x14a34"
      },
      "additionalContracts": [],
      "isFixedGasLimit": false
    },
    {
      "hash": "0xa144f085b539172b3ab32ee9d09fa2aaffefac66ca0ceb8df6290f83aeb7f688",
      "transactionType": "CALL",
      "contractName": null,
      "contractAddress": "0x553c346d69052e97255ee77f1ae96d857fb42db9",
      "function": "createMarket(string,string,string,uint256)",
      "arguments": [
        "Will Team USA win their next Olympic event?",
        "USA Wins",
        "USA Loses",
        "259200"
      ],
      "transaction": {
        "from": "0x683c2b9fbaedc26522f446e42bec896666390ec4",
        "to": "0x553c346d69052e97255ee77f1ae96d857fb42db9",
        "gas": "0x3cbff",
        "value": "0x0",
        "input": "0x76e00406000000000000000000000000000000000000000000000000000000000000008000000000000000000000000000000000000000000000000000000000000000e00000000000000000000000000000000000000000000000000000000000000120000000000000000000000000000000000000000000000000000000000003f480000000000000000000000000000000000000000000000000000000000000002b57696c6c205465616d205553412077696e207468656972206e657874204f6c796d706963206576656e743f00000000000000000000000000000000000000000000000000000000000000000000000000000000000000000000000000000000085553412057696e730000000000000000000000000000000000000000000000000000000000000000000000000000000000000000000000000000000000000009555341204c6f7365730000000000000000000000000000000000000000000000",
        "nonce": "0x26",
        "chainId": "0x14a34"
      },
      "additionalContracts": [],
      "isFixedGasLimit": false
    },
    {
      "hash": "0x007410274700c955e7abafd6afcaf35bfa5730588d10b1b8d8512fcd901e2c08",
      "transactionType": "CALL",
      "contractName": null,
      "contractAddress": "0x553c346d69052e97255ee77f1ae96d857fb42db9",
      "function": "createMarket(string,string,string,uint256)",
      "arguments": [
        "Will Tesla announce new product this week?",
        "Yes, New Product",
        "No Announcement",
        "604800"
      ],
      "transaction": {
        "from": "0x683c2b9fbaedc26522f446e42bec896666390ec4",
        "to": "0x553c346d69052e97255ee77f1ae96d857fb42db9",
        "gas": "0x40611",
        "value": "0x0",
        "input": "0x76e00406000000000000000000000000000000000000000000000000000000000000008000000000000000000000000000000000000000000000000000000000000000e000000000000000000000000000000000000000000000000000000000000001200000000000000000000000000000000000000000000000000000000000093a80000000000000000000000000000000000000000000000000000000000000002a57696c6c205465736c6120616e6e6f756e6365206e65772070726f647563742074686973207765656b3f0000000000000000000000000000000000000000000000000000000000000000000000000000000000000000000000000000000000105965732c204e65772050726f6475637400000000000000000000000000000000000000000000000000000000000000000000000000000000000000000000000f4e6f20416e6e6f756e63656d656e740000000000000000000000000000000000",
        "nonce": "0x27",
        "chainId": "0x14a34"
      },
      "additionalContracts": [],
      "isFixedGasLimit": false
    },
    {
      "hash": "0x246c8934e53122310274cd09867e1494e665a201b15ecd14bdfa196fda3b8bcf",
      "transactionType": "CALL",
      "contractName": null,
      "contractAddress": "0x553c346d69052e97255ee77f1ae96d857fb42db9",
      "function": "createMarket(string,string,string,uint256)",
      "arguments": [
        "Will Bitcoin be above $80,000 by next month?",
        "Above $80K",
        "Below $80K",
        "2592000"
      ],
      "transaction": {
        "from": "0x683c2b9fbaedc26522f446e42bec896666390ec4",
        "to": "0x553c346d69052e97255ee77f1ae96d857fb42db9",
        "gas": "0x40561",
        "value": "0x0",
        "input": "0x76e00406000000000000000000000000000000000000000000000000000000000000008000000000000000000000000000000000000000000000000000000000000000e000000000000000000000000000000000000000000000000000000000000001200000000000000000000000000000000000000000000000000000000000278d00000000000000000000000000000000000000000000000000000000000000002c57696c6c20426974636f696e2062652061626f7665202438302c303030206279206e657874206d6f6e74683f0000000000000000000000000000000000000000000000000000000000000000000000000000000000000000000000000000000a41626f7665202438304b00000000000000000000000000000000000000000000000000000000000000000000000000000000000000000000000000000000000a42656c6f77202438304b00000000000000000000000000000000000000000000",
        "nonce": "0x28",
        "chainId": "0x14a34"
      },
      "additionalContracts": [],
      "isFixedGasLimit": false
    }
  ],
  "receipts": [
    {
      "status": "0x1",
      "cumulativeGasUsed": "0x2084a4",
      "logs": [
        {
          "address": "0x553c346d69052e97255ee77f1ae96d857fb42db9",
          "topics": [
            "0xa2d123850430ad736c7d9b724e8f4ac57a15f478145540d7d4f9e01af14147f6",
            "0x0000000000000000000000000000000000000000000000000000000000000001"
          ],
          "data": "0x000000000000000000000000000000000000000000000000000000000000008000000000000000000000000000000000000000000000000000000000000000e0000000000000000000000000000000000000000000000000000000000000012000000000000000000000000000000000000000000000000000000000687eac02000000000000000000000000000000000000000000000000000000000000002c57696c6c204554482070726963652062652061626f76652024322c35303020696e2035206d696e757465733f0000000000000000000000000000000000000000000000000000000000000000000000000000000000000000000000000000000c41626f76652024322c3530300000000000000000000000000000000000000000000000000000000000000000000000000000000000000000000000000000000c42656c6f772024322c3530300000000000000000000000000000000000000000",
          "blockHash": "0x1402c94edce2da405eec90614e095fec470257590c428a904bbfbca536095e89",
          "blockNumber": "0x1b5a5fb",
          "blockTimestamp": "0x687eaad6",
          "transactionHash": "0x7bf6a750e16935e157ca8c63c39173fdccd4c5951c62eecfd4fe30a8a0a759e2",
          "transactionIndex": "0xc",
          "logIndex": "0x16",
          "removed": false
        }
      ],
      "logsBloom": "0x00000000000000000000000000000000000000000000000000000000000000000000000000000000000000000000000000000000000000000000000000040000000000000000000000800000000000100000040000040000000000000000000000000000002000000000000000000000000000000000040000000000000000000000000000000000000000000000000000000000000000000000000000000000000000000000000000000000000000000000000000000000000000000000000000000000000000000000000000000000000000000000000000000000000040000000000000000000000000000000002000000000000000000000000000000000",
      "type": "0x2",
      "transactionHash": "0x7bf6a750e16935e157ca8c63c39173fdccd4c5951c62eecfd4fe30a8a0a759e2",
      "transactionIndex": "0xc",
      "blockHash": "0x1402c94edce2da405eec90614e095fec470257590c428a904bbfbca536095e89",
      "blockNumber": "0x1b5a5fb",
      "gasUsed": "0x2c00a",
      "effectiveGasPrice": "0xded55",
      "from": "0x683c2b9fbaedc26522f446e42bec896666390ec4",
      "to": "0x553c346d69052e97255ee77f1ae96d857fb42db9",
      "contractAddress": null,
      "l1BaseFeeScalar": "0x44d",
      "l1BlobBaseFee": "0x1",
      "l1BlobBaseFeeScalar": "0xa118b",
      "l1Fee": "0x97",
      "l1GasPrice": "0x13",
      "l1GasUsed": "0x985"
    },
    {
      "status": "0x1",
      "cumulativeGasUsed": "0x23448a",
      "logs": [
        {
          "address": "0x553c346d69052e97255ee77f1ae96d857fb42db9",
          "topics": [
            "0xa2d123850430ad736c7d9b724e8f4ac57a15f478145540d7d4f9e01af14147f6",
            "0x0000000000000000000000000000000000000000000000000000000000000002"
          ],
          "data": "0x000000000000000000000000000000000000000000000000000000000000008000000000000000000000000000000000000000000000000000000000000000e0000000000000000000000000000000000000000000000000000000000000012000000000000000000000000000000000000000000000000000000000687ead2e000000000000000000000000000000000000000000000000000000000000002d57696c6c204254432f55534420626520677265656e20696e20746865206e657874203130206d696e757465733f00000000000000000000000000000000000000000000000000000000000000000000000000000000000000000000000000000a477265656e202855702900000000000000000000000000000000000000000000000000000000000000000000000000000000000000000000000000000000000a5265642028446f776e2900000000000000000000000000000000000000000000",
          "blockHash": "0xe17d100f4f735ec55dd98ca310b810f9a5144cf8590882163a247ec4ed8e422a",
          "blockNumber": "0x1b5a5fb",
          "transactionHash": "0xdb931549bdede4459af07dce1364f0e6ddba9de1530c2ba95a1559e2b13abf1b",
          "transactionIndex": "0xd",
          "logIndex": "0x17",
          "removed": false
        }
      ],
      "logsBloom": "0x04000000000000000000000000000000000000000000000000000000000000000000000000000000000000000000000000000000000000000000000000000000000000000000000000800000000000100000040000000000000000000000000000000000002000000000000000000000000000000000040000000000000000000000000000000000000000000000000000000000000000000000000000000000000000000000000000000100000000000000000000000000000000000000000000000000000000000000000000000000000000000000000000000000000000000000000000000000000000000000002000000000008000000000000000000000",
      "type": "0x2",
      "transactionHash": "0xdb931549bdede4459af07dce1364f0e6ddba9de1530c2ba95a1559e2b13abf1b",
      "transactionIndex": "0xd",
      "blockHash": "0xe17d100f4f735ec55dd98ca310b810f9a5144cf8590882163a247ec4ed8e422a",
      "blockNumber": "0x1b5a5fb",
      "gasUsed": "0x2bfe6",
      "effectiveGasPrice": "0xded55",
      "from": "0x683c2b9fbaedc26522f446e42bec896666390ec4",
      "to": "0x553c346d69052e97255ee77f1ae96d857fb42db9",
      "contractAddress": null,
      "l1BaseFeeScalar": "0x44d",
      "l1BlobBaseFee": "0x1",
      "l1BlobBaseFeeScalar": "0xa118b",
      "l1Fee": "0x9d",
      "l1GasPrice": "0x13",
      "l1GasUsed": "0x9e2"
    },
    {
      "status": "0x1",
      "cumulativeGasUsed": "0x260488",
      "logs": [
        {
          "address": "0x553c346d69052e97255ee77f1ae96d857fb42db9",
          "topics": [
            "0xa2d123850430ad736c7d9b724e8f4ac57a15f478145540d7d4f9e01af14147f6",
            "0x0000000000000000000000000000000000000000000000000000000000000003"
          ],
          "data": "0x000000000000000000000000000000000000000000000000000000000000008000000000000000000000000000000000000000000000000000000000000000e0000000000000000000000000000000000000000000000000000000000000012000000000000000000000000000000000000000000000000000000000687eb1de000000000000000000000000000000000000000000000000000000000000003257696c6c20746865206e657874204e42412067616d652068617665206f7665722032323020746f74616c20706f696e74733f000000000000000000000000000000000000000000000000000000000000000000000000000000000000000000084f766572203232300000000000000000000000000000000000000000000000000000000000000000000000000000000000000000000000000000000000000009556e646572203232300000000000000000000000000000000000000000000000",
          "blockHash": "0xe17d100f4f735ec55dd98ca310b810f9a5144cf8590882163a247ec4ed8e422a",
          "blockNumber": "0x1b5a5fb",
          "transactionHash": "0xfb45206f4821ba593db1310601126b3ef342121df2a9e239ded1eb77415a80a7",
          "transactionIndex": "0xe",
          "logIndex": "0x18",
          "removed": false
        }
      ],
      "logsBloom": "0x00000000000000000000000000000000000000000000000000000000000000000000000000000000000000000000000000000000020000000000000000000000000000000000000000800000000000100000040000000000000000000000000000000000002000000000000000000000000000000000040000000000000000000000000000000000000000000000000000000000000000000000000000000000000000000000000000000000000000000000000000800000000000000000400000000000000000000000000000000000000000000000000000000000000000000000000000000000000000000000002000000000000000000000000000000000",
      "type": "0x2",
      "transactionHash": "0xfb45206f4821ba593db1310601126b3ef342121df2a9e239ded1eb77415a80a7",
      "transactionIndex": "0xe",
      "blockHash": "0xe17d100f4f735ec55dd98ca310b810f9a5144cf8590882163a247ec4ed8e422a",
      "blockNumber": "0x1b5a5fb",
      "gasUsed": "0x2bffe",
      "effectiveGasPrice": "0xded55",
      "from": "0x683c2b9fbaedc26522f446e42bec896666390ec4",
      "to": "0x553c346d69052e97255ee77f1ae96d857fb42db9",
      "contractAddress": null,
      "l1BaseFeeScalar": "0x44d",
      "l1BlobBaseFee": "0x1",
      "l1BlobBaseFeeScalar": "0xa118b",
      "l1Fee": "0x99",
      "l1GasPrice": "0x13",
      "l1GasUsed": "0x99f"
    },
    {
      "status": "0x1",
      "cumulativeGasUsed": "0x2aaedc",
      "logs": [
        {
          "address": "0x553c346d69052e97255ee77f1ae96d857fb42db9",
          "topics": [
            "0xa2d123850430ad736c7d9b724e8f4ac57a15f478145540d7d4f9e01af14147f6",
            "0x0000000000000000000000000000000000000000000000000000000000000004"
          ],
          "data": "0x000000000000000000000000000000000000000000000000000000000000008000000000000000000000000000000000000000000000000000000000000000e0000000000000000000000000000000000000000000000000000000000000012000000000000000000000000000000000000000000000000000000000687eb8e6000000000000000000000000000000000000000000000000000000000000002457696c6c204170706c652073746f636b20636c6f73652068696768657220746f6461793f00000000000000000000000000000000000000000000000000000000000000000000000000000000000000000000000000000000000000000000000c48696768657220436c6f73650000000000000000000000000000000000000000000000000000000000000000000000000000000000000000000000000000000b4c6f77657220436c6f7365000000000000000000000000000000000000000000",
          "blockHash": "0xe5258d21c76c41107f17b3007cfcd54a8b8dad3664425734542c87f050121e62",
          "blockNumber": "0x1b5a5fb",
          "blockTimestamp": "0x687eaad6",
          "transactionHash": "0xc84858aa982e71c57375243f09d04be6546392ec8ef730c1a915c9e92ca7b8f8",
          "transactionIndex": "0x10",
          "logIndex": "0x1c",
          "removed": false
        }
      ],
      "logsBloom": "0x00000000000000000000000000000000000000000000000000000000000000000000000000000000000000000000000000000000000000000000000000000000000000000000000000800000000000100000040000000000000000000000000008000000002000000000000000000000000000000000040000000000000000000000000000000000000000000000000000000000000000000000000000000000000000000000000000000000000000000000000000000000002000000000000000000000000000000000000000000000000000008000000000000000000000000000000000000000000000000000002000000000000000000000000000000000",
      "type": "0x2",
      "transactionHash": "0xc84858aa982e71c57375243f09d04be6546392ec8ef730c1a915c9e92ca7b8f8",
      "transactionIndex": "0x10",
      "blockHash": "0xe5258d21c76c41107f17b3007cfcd54a8b8dad3664425734542c87f050121e62",
      "blockNumber": "0x1b5a5fb",
      "gasUsed": "0x2bf9e",
      "effectiveGasPrice": "0xded55",
      "from": "0x683c2b9fbaedc26522f446e42bec896666390ec4",
      "to": "0x553c346d69052e97255ee77f1ae96d857fb42db9",
      "contractAddress": null,
      "l1BaseFeeScalar": "0x44d",
      "l1BlobBaseFee": "0x1",
      "l1BlobBaseFeeScalar": "0xa118b",
      "l1Fee": "0x91",
      "l1GasPrice": "0x13",
      "l1GasUsed": "0x927"
    },
    {
      "status": "0x1",
      "cumulativeGasUsed": "0x2d6e92",
      "logs": [
        {
          "address": "0x553c346d69052e97255ee77f1ae96d857fb42db9",
          "topics": [
            "0xa2d123850430ad736c7d9b724e8f4ac57a15f478145540d7d4f9e01af14147f6",
            "0x0000000000000000000000000000000000000000000000000000000000000005"
          ],
          "data": "0x000000000000000000000000000000000000000000000000000000000000008000000000000000000000000000000000000000000000000000000000000000e0000000000000000000000000000000000000000000000000000000000000012000000000000000000000000000000000000000000000000000000000687ec6f6000000000000000000000000000000000000000000000000000000000000002d57696c6c206974207261696e20696e204e657720596f726b20696e20746865206e657874203220686f7572733f00000000000000000000000000000000000000000000000000000000000000000000000000000000000000000000000000000957696c6c205261696e000000000000000000000000000000000000000000000000000000000000000000000000000000000000000000000000000000000000074e6f205261696e00000000000000000000000000000000000000000000000000",
          "blockHash": "0xe5258d21c76c41107f17b3007cfcd54a8b8dad3664425734542c87f050121e62",
          "blockNumber": "0x1b5a5fb",
          "blockTimestamp": "0x687eaad6",
          "transactionHash": "0x803955b35ececeb1da0e6055126db0e18143f5f8351a16f2e378315bc9fcbfd1",
          "transactionIndex": "0x11",
          "logIndex": "0x1d",
          "removed": false
        }
      ],
      "logsBloom": "0x00000000000000000000000000000000000000000000000000000000000000000000000000000000000000000000000000000000000000000000000000000000000010000000000000800000000000100000040000000000000000000000000000000000002000000000000000000000000000000000040000000000000000000000000000000000000000000000001000000800000000000000000000000000000000000000000000000000000000000000000000000000000000000000000000000000000000000000000000000000000000000000000000000000000000000000000000000000000000000000002000000000000000000000000000000000",
      "type": "0x2",
      "transactionHash": "0x803955b35ececeb1da0e6055126db0e18143f5f8351a16f2e378315bc9fcbfd1",
      "transactionIndex": "0x11",
      "blockHash": "0xe5258d21c76c41107f17b3007cfcd54a8b8dad3664425734542c87f050121e62",
      "blockNumber": "0x1b5a5fb",
      "gasUsed": "0x2bfb6",
      "effectiveGasPrice": "0xded55",
      "from": "0x683c2b9fbaedc26522f446e42bec896666390ec4",
      "to": "0x553c346d69052e97255ee77f1ae96d857fb42db9",
      "contractAddress": null,
      "l1BaseFeeScalar": "0x44d",
      "l1BlobBaseFee": "0x1",
      "l1BlobBaseFeeScalar": "0xa118b",
      "l1Fee": "0x90",
      "l1GasPrice": "0x13",
      "l1GasUsed": "0x91a"
    },
    {
      "status": "0x1",
      "cumulativeGasUsed": "0x302e3c",
      "logs": [
        {
          "address": "0x553c346d69052e97255ee77f1ae96d857fb42db9",
          "topics": [
            "0xa2d123850430ad736c7d9b724e8f4ac57a15f478145540d7d4f9e01af14147f6",
            "0x0000000000000000000000000000000000000000000000000000000000000006"
          ],
          "data": "0x000000000000000000000000000000000000000000000000000000000000008000000000000000000000000000000000000000000000000000000000000000e0000000000000000000000000000000000000000000000000000000000000012000000000000000000000000000000000000000000000000000000000687eff36000000000000000000000000000000000000000000000000000000000000002c57696c6c20536f6c616e612028534f4c29206f7574706572666f726d20457468657265756d20746f6461793f00000000000000000000000000000000000000000000000000000000000000000000000000000000000000000000000000000008534f4c2057696e7300000000000000000000000000000000000000000000000000000000000000000000000000000000000000000000000000000000000000084554482057696e73000000000000000000000000000000000000000000000000",
          "blockHash": "0xe17d100f4f735ec55dd98ca310b810f9a5144cf8590882163a247ec4ed8e422a",
          "blockNumber": "0x1b5a5fb",
          "transactionHash": "0x6090a319687408eac70b77ba48710a1683d9a32d8a19ea7def378b1f91d2add4",
          "transactionIndex": "0x12",
          "logIndex": "0x1e",
          "removed": false
        }
      ],
      "logsBloom": "0x00000000000000000000000000000000000000000000000000000000000000000000000000000000000000000000000000000000000400000000000000000000000000000000000000800000000000100000040000000000000000000000000000000000002000000000000000000000000000000000040000000000000000000000000400000000000000000000000000000000000000000000000000000000000000000000000000000000000000000000000000000000000000080000000000000000000000000000000000000000000000000000000000000000000000000000000000000000000000000000002000000000000000000000000000000000",
      "type": "0x2",
      "transactionHash": "0x6090a319687408eac70b77ba48710a1683d9a32d8a19ea7def378b1f91d2add4",
      "transactionIndex": "0x12",
      "blockHash": "0xe17d100f4f735ec55dd98ca310b810f9a5144cf8590882163a247ec4ed8e422a",
      "blockNumber": "0x1b5a5fb",
      "gasUsed": "0x2bfaa",
      "effectiveGasPrice": "0xded55",
      "from": "0x683c2b9fbaedc26522f446e42bec896666390ec4",
      "to": "0x553c346d69052e97255ee77f1ae96d857fb42db9",
      "contractAddress": null,
      "l1BaseFeeScalar": "0x44d",
      "l1BlobBaseFee": "0x1",
      "l1BlobBaseFeeScalar": "0xa118b",
      "l1Fee": "0x97",
      "l1GasPrice": "0x13",
      "l1GasUsed": "0x985"
    },
    {
      "status": "0x1",
      "cumulativeGasUsed": "0x32eed6",
      "logs": [
        {
          "address": "0x553c346d69052e97255ee77f1ae96d857fb42db9",
          "topics": [
            "0xa2d123850430ad736c7d9b724e8f4ac57a15f478145540d7d4f9e01af14147f6",
            "0x0000000000000000000000000000000000000000000000000000000000000007"
          ],
          "data": "0x000000000000000000000000000000000000000000000000000000000000008000000000000000000000000000000000000000000000000000000000000000e0000000000000000000000000000000000000000000000000000000000000012000000000000000000000000000000000000000000000000000000000687ffc56000000000000000000000000000000000000000000000000000000000000003357696c6c2074686572652062652061206d616a6f7220706f6c69746963616c20616e6e6f756e63656d656e7420746f6461793f00000000000000000000000000000000000000000000000000000000000000000000000000000000000000000f5965732c204d616a6f72204e6577730000000000000000000000000000000000000000000000000000000000000000000000000000000000000000000000000d4e6f204d616a6f72204e65777300000000000000000000000000000000000000",
          "blockHash": "0xe5258d21c76c41107f17b3007cfcd54a8b8dad3664425734542c87f050121e62",
          "blockNumber": "0x1b5a5fb",
          "blockTimestamp": "0x687eaad6",
          "transactionHash": "0x533ca84b786c994d09cb60f33f864d97ed43e1dd32c9f33e8b94b3c43183cba3",
          "transactionIndex": "0x13",
          "logIndex": "0x1f",
          "removed": false
        }
      ],
      "logsBloom": "0x00000000000000000000000000000000000000000000000000000000000000000000000000000000000000000000000000001000000000000000000000000000000020000000000000800000000000100000040000000000000000000000000000000000002000000000000000000000000000000000040000000000000000000000000000000000000000000000000000000000000000000000000000000000000000000000000000000000000000000000000000000000000000000000000000000000000000000000000000000000000000000000000000000100000000000000000000000000000000000000002000000000000000000000000000000000",
      "type": "0x2",
      "transactionHash": "0x533ca84b786c994d09cb60f33f864d97ed43e1dd32c9f33e8b94b3c43183cba3",
      "transactionIndex": "0x13",
      "blockHash": "0xe5258d21c76c41107f17b3007cfcd54a8b8dad3664425734542c87f050121e62",
      "blockNumber": "0x1b5a5fb",
      "gasUsed": "0x2c09a",
      "effectiveGasPrice": "0xded55",
      "from": "0x683c2b9fbaedc26522f446e42bec896666390ec4",
      "to": "0x553c346d69052e97255ee77f1ae96d857fb42db9",
      "contractAddress": null,
      "l1BaseFeeScalar": "0x44d",
      "l1BlobBaseFee": "0x1",
      "l1BlobBaseFeeScalar": "0xa118b",
      "l1Fee": "0x9c",
      "l1GasPrice": "0x13",
      "l1GasUsed": "0x9d5"
    },
    {
      "status": "0x1",
      "cumulativeGasUsed": "0x35ae8c",
      "logs": [
        {
          "address": "0x553c346d69052e97255ee77f1ae96d857fb42db9",
          "topics": [
            "0xa2d123850430ad736c7d9b724e8f4ac57a15f478145540d7d4f9e01af14147f6",
            "0x0000000000000000000000000000000000000000000000000000000000000008"
          ],
          "data": "0x000000000000000000000000000000000000000000000000000000000000008000000000000000000000000000000000000000000000000000000000000000e000000000000000000000000000000000000000000000000000000000000001200000000000000000000000000000000000000000000000000000000068829f56000000000000000000000000000000000000000000000000000000000000002b57696c6c205465616d205553412077696e207468656972206e657874204f6c796d706963206576656e743f00000000000000000000000000000000000000000000000000000000000000000000000000000000000000000000000000000000085553412057696e730000000000000000000000000000000000000000000000000000000000000000000000000000000000000000000000000000000000000009555341204c6f7365730000000000000000000000000000000000000000000000",
          "blockHash": "0xe17d100f4f735ec55dd98ca310b810f9a5144cf8590882163a247ec4ed8e422a",
          "blockNumber": "0x1b5a5fb",
          "transactionHash": "0xa144f085b539172b3ab32ee9d09fa2aaffefac66ca0ceb8df6290f83aeb7f688",
          "transactionIndex": "0x14",
          "logIndex": "0x20",
          "removed": false
        }
      ],
      "logsBloom": "0x00000000000000000000000000000000000000000000000000000000000000000000000000000000000000000000000000000000000080000000000000000000000000000000000000800000000000100000040000000000000000000000000000000000002000000000000000000000000000000000040000000000000000000080000000000000000000000000000000000000000000000000000000000000000000000000000000000000000000000000000000000000000000000000000040000000000000000000000000000000000000000000000000000000000000000000000000000000000000000000002000000000000000000000000000000000",
      "type": "0x2",
      "transactionHash": "0xa144f085b539172b3ab32ee9d09fa2aaffefac66ca0ceb8df6290f83aeb7f688",
      "transactionIndex": "0x14",
      "blockHash": "0xe17d100f4f735ec55dd98ca310b810f9a5144cf8590882163a247ec4ed8e422a",
      "blockNumber": "0x1b5a5fb",
      "gasUsed": "0x2bfb6",
      "effectiveGasPrice": "0xded55",
      "from": "0x683c2b9fbaedc26522f446e42bec896666390ec4",
      "to": "0x553c346d69052e97255ee77f1ae96d857fb42db9",
      "contractAddress": null,
      "l1BaseFeeScalar": "0x44d",
      "l1BlobBaseFee": "0x1",
      "l1BlobBaseFeeScalar": "0xa118b",
      "l1Fee": "0x95",
      "l1GasPrice": "0x13",
      "l1GasUsed": "0x96a"
    },
    {
      "status": "0x1",
      "cumulativeGasUsed": "0x386ede",
      "logs": [
        {
          "address": "0x553c346d69052e97255ee77f1ae96d857fb42db9",
          "topics": [
            "0xa2d123850430ad736c7d9b724e8f4ac57a15f478145540d7d4f9e01af14147f6",
            "0x0000000000000000000000000000000000000000000000000000000000000009"
          ],
          "data": "0x000000000000000000000000000000000000000000000000000000000000008000000000000000000000000000000000000000000000000000000000000000e00000000000000000000000000000000000000000000000000000000000000120000000000000000000000000000000000000000000000000000000006887e556000000000000000000000000000000000000000000000000000000000000002a57696c6c205465736c6120616e6e6f756e6365206e65772070726f647563742074686973207765656b3f0000000000000000000000000000000000000000000000000000000000000000000000000000000000000000000000000000000000105965732c204e65772050726f6475637400000000000000000000000000000000000000000000000000000000000000000000000000000000000000000000000f4e6f20416e6e6f756e63656d656e740000000000000000000000000000000000",
          "blockHash": "0xe5258d21c76c41107f17b3007cfcd54a8b8dad3664425734542c87f050121e62",
          "blockNumber": "0x1b5a5fb",
          "blockTimestamp": "0x687eaad6",
          "transactionHash": "0x007410274700c955e7abafd6afcaf35bfa5730588d10b1b8d8512fcd901e2c08",
          "transactionIndex": "0x15",
          "logIndex": "0x21",
          "removed": false
        }
      ],
      "logsBloom": "0x00000000000000000000000000000000000000000000000000000000000000000000000000000000000000000000000000000000000000000000000000200000000000000000000000800000000000100000040000000000000000000000000000000000002000000000000000000000000000000000040000000000000000000000000000000000000000000000000000001000000000000000000000000000000000000000000000000000000000000000000000000000000000000000000000000000000000000000000000000000000000000000000000000000000000000000000000000000000000000000002000000000000000000000000000800000",
      "type": "0x2",
      "transactionHash": "0x007410274700c955e7abafd6afcaf35bfa5730588d10b1b8d8512fcd901e2c08",
      "transactionIndex": "0x15",
      "blockHash": "0xe5258d21c76c41107f17b3007cfcd54a8b8dad3664425734542c87f050121e62",
      "blockNumber": "0x1b5a5fb",
      "gasUsed": "0x2c052",
      "effectiveGasPrice": "0xded55",
      "from": "0x683c2b9fbaedc26522f446e42bec896666390ec4",
      "to": "0x553c346d69052e97255ee77f1ae96d857fb42db9",
      "contractAddress": null,
      "l1BaseFeeScalar": "0x44d",
      "l1BlobBaseFee": "0x1",
      "l1BlobBaseFeeScalar": "0xa118b",
      "l1Fee": "0x99",
      "l1GasPrice": "0x13",
      "l1GasUsed": "0x9ad"
    },
    {
      "status": "0x1",
      "cumulativeGasUsed": "0x3b2eb8",
      "logs": [
        {
          "address": "0x553c346d69052e97255ee77f1ae96d857fb42db9",
          "topics": [
            "0xa2d123850430ad736c7d9b724e8f4ac57a15f478145540d7d4f9e01af14147f6",
            "0x000000000000000000000000000000000000000000000000000000000000000a"
          ],
          "data": "0x000000000000000000000000000000000000000000000000000000000000008000000000000000000000000000000000000000000000000000000000000000e000000000000000000000000000000000000000000000000000000000000001200000000000000000000000000000000000000000000000000000000068a637d6000000000000000000000000000000000000000000000000000000000000002c57696c6c20426974636f696e2062652061626f7665202438302c303030206279206e657874206d6f6e74683f0000000000000000000000000000000000000000000000000000000000000000000000000000000000000000000000000000000a41626f7665202438304b00000000000000000000000000000000000000000000000000000000000000000000000000000000000000000000000000000000000a42656c6f77202438304b00000000000000000000000000000000000000000000",
          "blockHash": "0xe5258d21c76c41107f17b3007cfcd54a8b8dad3664425734542c87f050121e62",
          "blockNumber": "0x1b5a5fb",
          "blockTimestamp": "0x687eaad6",
          "transactionHash": "0x246c8934e53122310274cd09867e1494e665a201b15ecd14bdfa196fda3b8bcf",
          "transactionIndex": "0x16",
          "logIndex": "0x22",
          "removed": false
        }
      ],
      "logsBloom": "0x00000000000000000000000000000000000000000000000000000000000000000000000000000000000000000000000000000000040000000020000000000000000000000000000000800000000000100000040000000000000000000000000000000000002000000000000000000000000000000000040000000000000000000000000000000000010000000000000000000000000000000000000000000000000000000000000000000000000000000000000000000000000000000000000000000000000000000000000000000000000000000000000000000000000000000000000000000000000000000000002000000000000000000000000000000000",
      "type": "0x2",
      "transactionHash": "0x246c8934e53122310274cd09867e1494e665a201b15ecd14bdfa196fda3b8bcf",
      "transactionIndex": "0x16",
      "blockHash": "0xe5258d21c76c41107f17b3007cfcd54a8b8dad3664425734542c87f050121e62",
      "blockNumber": "0x1b5a5fb",
      "gasUsed": "0x2bfda",
      "effectiveGasPrice": "0xded55",
      "from": "0x683c2b9fbaedc26522f446e42bec896666390ec4",
      "to": "0x553c346d69052e97255ee77f1ae96d857fb42db9",
      "contractAddress": null,
      "l1BaseFeeScalar": "0x44d",
      "l1BlobBaseFee": "0x1",
      "l1BlobBaseFeeScalar": "0xa118b",
      "l1Fee": "0x98",
      "l1GasPrice": "0x13",
      "l1GasUsed": "0x992"
    }
  ],
  "libraries": [],
  "pending": [],
  "returns": {},
  "timestamp": 1753131735,
  "chain": 84532,
  "commit": "731e54e"
}